{
  "contractName": "Lottery",
  "abi": [
    {
      "inputs": [],
      "stateMutability": "nonpayable",
      "type": "constructor"
    },
    {
      "inputs": [],
      "name": "manager",
      "outputs": [
        {
          "internalType": "address",
          "name": "",
          "type": "address"
        }
      ],
      "stateMutability": "view",
      "type": "function",
      "constant": true
    },
    {
      "inputs": [
        {
          "internalType": "uint256",
          "name": "",
          "type": "uint256"
        }
      ],
      "name": "players",
      "outputs": [
        {
          "internalType": "address payable",
          "name": "",
          "type": "address"
        }
      ],
      "stateMutability": "view",
      "type": "function",
      "constant": true
    },
    {
      "inputs": [],
      "name": "enter",
      "outputs": [],
      "stateMutability": "payable",
      "type": "function",
      "payable": true
    },
    {
      "inputs": [],
      "name": "pickWinner",
      "outputs": [],
      "stateMutability": "nonpayable",
      "type": "function"
    },
    {
      "inputs": [],
      "name": "getplayers",
      "outputs": [
        {
          "internalType": "address payable[]",
          "name": "",
          "type": "address[]"
        }
      ],
      "stateMutability": "view",
      "type": "function",
      "constant": true
    }
  ],
  "bytecode": "0x608060405234801561001057600080fd5b50336000806101000a81548173ffffffffffffffffffffffffffffffffffffffff021916908373ffffffffffffffffffffffffffffffffffffffff1602179055506108d8806100606000396000f3fe60806040526004361061004a5760003560e01c8063481c6a751461004f5780635d495aea1461007a578063e97dcb6214610091578063ecb3db521461009b578063f71d96cb146100c6575b600080fd5b34801561005b57600080fd5b50610064610103565b6040516100719190610408565b60405180910390f35b34801561008657600080fd5b5061008f610127565b005b6100996101d9565b005b3480156100a757600080fd5b506100b061023e565b6040516100bd91906104f3565b60405180910390f35b3480156100d257600080fd5b506100ed60048036038101906100e89190610550565b6102cc565b6040516100fa919061058c565b60405180910390f35b60008054906101000a900473ffffffffffffffffffffffffffffffffffffffff1681565b600060018054905061013761030b565b61014191906105d6565b90506001818154811061015757610156610607565b5b9060005260206000200160009054906101000a900473ffffffffffffffffffffffffffffffffffffffff1673ffffffffffffffffffffffffffffffffffffffff166108fc479081150290604051600060405180830381858888f193505050501580156101c7573d6000803e3d6000fd5b50600160006101d69190610389565b50565b6001339080600181540180825580915050600190039060005260206000200160009091909190916101000a81548173ffffffffffffffffffffffffffffffffffffffff021916908373ffffffffffffffffffffffffffffffffffffffff160217905550565b606060018054806020026020016040519081016040528092919081815260200182805480156102c257602002820191906000526020600020905b8160009054906101000a900473ffffffffffffffffffffffffffffffffffffffff1673ffffffffffffffffffffffffffffffffffffffff1681526020019060010190808311610278575b5050505050905090565b600181815481106102dc57600080fd5b906000526020600020016000915054906101000a900473ffffffffffffffffffffffffffffffffffffffff1681565b600060024443600160405160200161032593929190610775565b6040516020818303038152906040526040516103419190610828565b602060405180830381855afa15801561035e573d6000803e3d6000fd5b5050506040513d601f19601f820116820180604052508101906103819190610875565b60001c905090565b50805460008255906000526020600020908101906103a791906103aa565b50565b5b808211156103c35760008160009055506001016103ab565b5090565b600073ffffffffffffffffffffffffffffffffffffffff82169050919050565b60006103f2826103c7565b9050919050565b610402816103e7565b82525050565b600060208201905061041d60008301846103f9565b92915050565b600081519050919050565b600082825260208201905092915050565b6000819050602082019050919050565b600061045a826103c7565b9050919050565b61046a8161044f565b82525050565b600061047c8383610461565b60208301905092915050565b6000602082019050919050565b60006104a082610423565b6104aa818561042e565b93506104b58361043f565b8060005b838110156104e65781516104cd8882610470565b97506104d883610488565b9250506001810190506104b9565b5085935050505092915050565b6000602082019050818103600083015261050d8184610495565b905092915050565b600080fd5b6000819050919050565b61052d8161051a565b811461053857600080fd5b50565b60008135905061054a81610524565b92915050565b60006020828403121561056657610565610515565b5b60006105748482850161053b565b91505092915050565b6105868161044f565b82525050565b60006020820190506105a1600083018461057d565b92915050565b7f4e487b7100000000000000000000000000000000000000000000000000000000600052601260045260246000fd5b60006105e18261051a565b91506105ec8361051a565b9250826105fc576105fb6105a7565b5b828206905092915050565b7f4e487b7100000000000000000000000000000000000000000000000000000000600052603260045260246000fd5b6000819050919050565b61065161064c8261051a565b610636565b82525050565b600081549050919050565b600081905092915050565b60008190508160005260206000209050919050565b61068b8161044f565b82525050565b600061069d8383610682565b60208301905092915050565b60008160001c9050919050565b600073ffffffffffffffffffffffffffffffffffffffff82169050919050565b60006106e96106e4836106a9565b6106b6565b9050919050565b60006106fc82546106d6565b9050919050565b6000600182019050919050565b600061071b82610657565b6107258185610662565b93506107308361066d565b8060005b8381101561076857610745826106f0565b61074f8882610691565b975061075a83610703565b925050600181019050610734565b5085935050505092915050565b60006107818286610640565b6020820191506107918285610640565b6020820191506107a18284610710565b9150819050949350505050565b600081519050919050565b600081905092915050565b60005b838110156107e25780820151818401526020810190506107c7565b838111156107f1576000848401525b50505050565b6000610802826107ae565b61080c81856107b9565b935061081c8185602086016107c4565b80840191505092915050565b600061083482846107f7565b915081905092915050565b6000819050919050565b6108528161083f565b811461085d57600080fd5b50565b60008151905061086f81610849565b92915050565b60006020828403121561088b5761088a610515565b5b600061089984828501610860565b9150509291505056fea26469706673582212201d89795341cda77f1fb44c33c7ea76a948a4f7274cc6dfccc7d8ebe2f804303664736f6c634300080d0033",
  "immutableReferences": {},
  "source": "// SPDX-License-Identifier: GPL-3.0\n\npragma solidity >=0.7.0 <0.9.0;\ncontract Lottery{\n    address public manager;\n    address payable[] public players;\n    constructor()\n    {\n        manager = msg.sender;\n    }\n    function alreadyEntered () view private returns(bool)\n    {\n        for(uint i =0;i<players.length;i++)\n        {\n            if(players[i]==msg.sender) return true;\n        }\n        return false;\n    }\n    function enter() payable public\n    {\n      //  require(msg.sender!=manager,\"manager can not psrticipate in\");\n     //require(alreadyEntered() == false,\"allready registered\");\n    // require(msg.value==1,\"pay 1 ether\"); \n     players.push(payable(msg.sender));\n    }\n    function random() view private returns(uint)\n    {\n  return uint(sha256(abi.encodePacked(block.difficulty,block.number,players)));\n    }\n    function pickWinner() public\n    {\n        //require(msg.sender == manager,\"you are not authorized to pick only manager can pick\");\n        uint index = random()%players.length;\n        players[index].transfer((address(this).balance));\n        delete players;\n    } \n   function getplayers() public view returns(address payable [] memory)\n   {\n        return players;\n        \n   }\n}",
  "sourcePath": "/home/akash/lottery/contracts/lottery.sol",
  "compiler": {
    "name": "solc",
    "version": "0.8.13+commit.abaa5c0e.Emscripten.clang"
  },
  "schemaVersion": "3.4.7",
  "updatedAt": "2022-05-18T02:52:14.487Z",
  "networkType": "ethereum",
  "devdoc": {
    "kind": "dev",
    "methods": {},
    "version": 1
  },
  "userdoc": {
    "kind": "user",
    "methods": {},
    "version": 1
  }
}